:020000040800F2
:10000000280400209D010008F1030008E90300080E
:10001000ED030008E5010008890600080000000063
:1000200000000000000000000000000015040008AF
:10003000E901000800000000F30300082D05000896
:10004000B7010008B7010008B7010008B7010008B0
:10005000B7010008B7010008B7010008B7010008A0
:10006000B7010008B7010008B7010008B701000890
:10007000B7010008B7010008B7010008B701000880
:10008000B7010008B7010008B7010008B701000870
:10009000B7010008B7010008B7010008B701000860
:1000A000B7010008B7010008B7010008B701000850
:1000B000B7010008B7010008B7010008B701000840
:1000C000B7010008B7010008B7010008B701000830
:1000D000B7010008D5050008B7010008B7010008FE
:1000E000B7010008B7010008B7010008B701000810
:1000F000B7010008B7010008B7010008B701000800
:10010000B7010008B7010008B7010008B7010008EF
:10011000B7010008B7010008B7010008B7010008DF
:10012000B7010008B7010008B7010008B7010008CF
:10013000B7010008B7010008B7010008B7010008BF
:10014000B7010008B7010008B7010008B7010008AF
:10015000B7010008B7010008B7010008B70100089F
:10016000B7010008B7010008B7010008B70100088F
:10017000B7010008B7010008B7010008B70100087F
:10018000B7010008B7010008DFF80CD000F018F83C
:1001900000480047AB0600082804002006488047B6
:1001A00006480047FEE7FEE7FEE7FEE7FEE7FEE75C
:1001B000FEE7FEE7FEE7FEE76D050008890100089F
:1001C000064C074D06E0E06840F0010394E80700A4
:1001D00098471034AC42F6D3FFF7DAFF1007000857
:1001E0003007000800BFFEE77047000010B5014669
:1001F00063291FD2224A12684A434FF0E0235A6112
:1002000000229A611A46126942F001021A6100BF87
:100210004FF0E022106900F001021AB100F48032C0
:10022000002AF5D06FF001024FF0E0231A6100229E
:100230009A6124E0002200BF1EE0114B1B684FF0C2
:10024000E02463610023A36123461B6943F001039B
:10025000236100BF4FF0E023186900F001031BB1D8
:1002600000F48033002BF5D06FF001034FF0E02451
:1002700023610023A361521C8A42DED300BF10BD5C
:10028000180000201CB50121102000F0B3F840F246
:10029000FF10009001208DF804008DF806008DF805
:1002A000070002208DF805006946064800F050F866
:1002B00040F2FF11034800F095F800200249086061
:1002C0001CBD0000001002402000002010B5FFF708
:1002D000D9FF00F0FFF910BD10B50446962C0FD0E1
:1002E0004021164800F07CF841F29410FFF77EFFA1
:1002F0004021124800F076F84FF47A70FFF776FF4D
:1003000001210F4800F06EF84FF47A70FFF76EFF8E
:1003100001210B4800F064F84FF4FA60FFF766FF24
:100320000221074800F05EF84FF47A70FFF75EFF95
:100330000221034800F054F810BD000000100240F4
:100340000008024010B504462046FFF7C5FF10BD67
:10035000F0B50A4600210023002400BF3DE001253E
:1003600005FA01F3156805EA03049C4234D10568D7
:100370004F000326BE40B543056015794E00B540D9
:100380000668354305601579012D02D01579022DD7
:1003900016D185684F000326BE40B5438560557968
:1003A0004E00B540866835438560456801268E401D
:1003B000B5434560456896798E40B6B23543456091
:1003C000C5684F000326BE40B543C560D5794E00D1
:1003D000B540C6683543C560491C1029BFD3F0BD80
:1003E000418370470183704700BFFEE700BFFEE70F
:1003F0007047704729B1064A12680243044B1A60DD
:1004000004E0034A12688243014B1A6070470000FF
:1004100030380240704700000CB500200190009079
:100420003448006840F480303249086000BF3148E9
:10043000006800F4003000900198401C0190009882
:1004400018B90198B0F5A04FF1D12A48006800F41E
:10045000003010B10120009001E0002000900098D1
:10046000012846D123484030006840F0805021499F
:10047000403108602048006840F440401E49086050
:100480001C48083000681B490831086008460068AD
:1004900040F4004008600846006840F4A05008603E
:1004A0001648091F0860081F006840F08070091F87
:1004B000086000BF0F48006800F000700028F9D005
:1004C00040F205700E4908600A480830006820F0C4
:1004D00003000849083108600846006840F002003F
:1004E000086000BF03480830006800F00C000828CE
:1004F000F8D10CBD0038024000700040085440079D
:10050000003C0240042808D14FF0E021096941F085
:1005100004014FF0E022116107E04FF0E02109698A
:1005200021F004014FF0E022116170477047000094
:1005300010B56FF00400FFF7E5FF084800680849B0
:10054000B0FBF1F007490870084600784FF47A7163
:1005500010FB01F00449086010BD000000000020FD
:1005600040420F00140000201800002010B515486C
:10057000006840F47000134908601348006840F0B8
:1005800001001149086000200F49083108600E4839
:1005900000680E4908400C4908600D48091D0860B4
:1005A000081F006820F48020091F08600020064909
:1005B0000C310860FFF730FF4FF0006001498039CF
:1005C000086010BD88ED00E000380240FFFFF6FE35
:1005D0001030002410B540F22551094800F025F8EC
:1005E00001280CD1064800F04AF80649087001209D
:1005F0000549087040F22551014800F007F810BD88
:10060000001001401D0000201C00002010B5002239
:10061000002340F66A14A14200D100BF0A1201244F
:100620009440A3B2DC43048010BD70B502460024A0
:1006300000230025002040F66A16B14200D100BF19
:10064000C1F3421501F01F03012606FA03F3012D41
:1006500002D19689334006E0022D02D1168A33403A
:1006600001E0968A33400C12012606FA04F416883B
:10067000344013B10CB1012000E0002070BD0146F0
:100680008888C0F30800704700BFFEE702E008C892
:10069000121F08C1002AFAD170477047002001E0FC
:1006A00001C1121F002AFBD17047FFF741FFFFF77E
:1006B0000DFE0DE01E20FFF745FE40F6B830FFF7B7
:1006C00095FD1420FFF73EFE40F6B830FFF78EFD93
:1006D000F0E700001CB501210420FFF78BFE03208A
:1006E000009001208DF8040000208DF80600022003
:1006F0008DF807008DF8050069460448FFF728FECD
:1007000003210248FFF76CFE1CBD000000080240F8
:100710003007000800000020240000008C060008BC
:100720005407000824000020040400009C06000870
:10073000007A030A00000000000000000102030428
:10074000060708090000000000000000000000008B
:0407500000000000A5
:040000050800018965
:00000001FF
